:020000040000FA
:040000008031212802
:100008007E1480310B1F1F282100111E1428200088
:10001800111E14286E088A006D080A0080311F28F6
:100028002100911E1F282000911E1F286C088A009D
:100038006B080A0080317E100900803123281430B3
:100048008400833085003C308600003087001930FA
:100058008331D5238031F601F701F801F901203009
:100068008400003085001C308331DB238031A030D0
:1000780084000030850040308331DB23803120301C
:1000880084000130850040308331DB238031A0308B
:1000980084000130850040308331DB2380312030FB
:1000A80084000230850040308331DB237E1020003D
:1000B8008031B0282000D9005908F4007408DC0009
:1000C8005608DB005508DA000130D7020030D83B6B
:1000D800570A031D9A28580A031D9A28D501D601E4
:1000E80008005A0884005B08850012000319A1283B
:1000F800570858040319A1285A0884005B0885008A
:100108000008F4005C0886000130870001087406C6
:10011800031DA1280130F4007408DC070130DA0758
:100128000030DB3D0130D7020030D83B5C08860048
:10013800013087000108031D75285C08860001301E
:1001480087005A0884005B08850000080102D50072
:10015800D601031CD60308008331BB2380318B17DB
:100168000B178231892280318331AA238031200004
:1001780039080319BB280230F4000030F500823139
:10018800E02280318431102480312100E0006008B1
:100198002000B8003808F400FF39031D0030F500CE
:1001A8002030823169228031CF302000DD00833059
:1001B800DE0020308031F92080312100E000600825
:1001C800E3006308F400FF39031D0130F500A03097
:1001D80082316922803140302000D5000030D600BD
:1001E800A03081317D218031B8282000E4005D08ED
:1001F8005E0403193D295E08F5005D08F4008331AB
:100208002D23803175082000E3007408E2003329AB
:100218005E08D6005D08D5006308D8006208D700DC
:10022800640880315E208031200055085604031D83
:100238001F29640808005D0884005E08850000081E
:10024800DF00E0015F08F4006008F5006408013E83
:1002580083315D2380312000E1006108E4006408F7
:1002680003193D2964088600013087000108031D31
:100278000C290030080021009112F030F400013000
:10028800F5008331FF23813121001112C330F400BE
:100298000230F5008331E7238131083023009F00C5
:1002A80090309D0024309E0044309B009C01123009
:1002B800F4000430F5008331F32381310930F40070
:1002C8000430F5008331ED2381310D30F400043022
:1002D800F5008331F9232000BA01F901F80108304B
:1002E800D5005508EF00F701F601BB012100911672
:1002F80008002000D800FF30D507FF30D63D550A4A
:100308000319560A03199F295808860001308700E7
:100318000108D7005708F400753084008330850041
:10032800013F8A00003F0A00813101302000D700D8
:100338005708D8077F290D30D7005708F4007530C3
:10034800840083308500013F8A00003F0A00813124
:100358000A302000D7005708F40075308400833035
:100368008500013F8A00003F0A00813108007D3086
:10037800840083308500013F8A00003F0A008131F4
:100388007930840083308500013F8A00003F0A00ED
:100398008131003A031DD2290000C429733084003A
:1003A80083308500013F8A00003F0A008131F20056
:1003B8007208F3004030200039020318080073085F
:1003C800F2003908A03E86008701720881000130DA
:1003D800F2007208B90708007708203E86008701F6
:1003E800810123001D1D032A7708203E860087010E
:1003F800811420006A088A0069080A0082312300F3
:100408009D1C112A7708203E8600870101152000CF
:1004180068088A0067080A0082317708203E86004B
:100428008701010803191F2A200066088A00650849
:100438000A008231080083314623080020003B0867
:100448000319222A7608203E860087010108F00059
:100458007008BA007608283E860087010108F00077
:100468007008F1000130F0007008F60708307602D5
:100478000318F6012100911201302000BB0221006F
:1004880091167108080020006F080319472A2100F7
:10049800111A522A740823009A00662A1112740845
:1004A800F5007908303E8600870175088100013023
:1004B800F5007508F907083079020318F9010130C9
:1004C8002000EF022100111608002000DA0075084C
:1004D800D8007408D7005A08D5005508D90059081B
:1004E800860001308700D90A5808D6005708D50079
:1004F800D70A0319D80A5508840056088500000849
:10050800C03F890803190800732ABB30F400013082
:10051800F5007F30840083308500013F8A00003F6A
:100528000A00823187302000D5008330D60082311E
:10053800A622823199302000D5008330D60082313E
:10054800A622080001302000B902390A0319080060
:1005580055088400560885000008D7005708F4009D
:100568007530840083308500013F8A00003F0A000F
:10057800823101302000D5070030D63DA62A083048
:1005880020006F020318DD2A7808303E86008701B4
:10059800010823009A000130F0007008F8070830BD
:1005A80078020318F8010130F00070082000EF0706
:1005B80008002100111208002000D601D701750893
:1005C8005702031DE92A7408560203180800683008
:1005D8002000D500E430890BEF2AD50BEF2A000064
:1005E80001302000D6070030D73DE32A22008C01D5
:1005F8008D018E013F3021008C0070308D00FF305E
:100608008E00FF3023008E0050308D0037308C0074
:1006180024008D018C012100951722009D010800FE
:10062800FE34023427340734043401342734FE34CA
:10063800023427340734103401343334FE3401349F
:1006480041340034003440344C3445345634453455
:100658004C3475082000D7007408D600740884004C
:1006680075088500120003193E2B0130F40700308D
:10067800F53D322B200056087402F4005708753BEC
:10068800F500080023001908F0007708283E8600C6
:100698008701700881000130F0007008F707083002
:1006A80077020318F7010130F00070082000BB073B
:1006B80008002000D5005508860001308700010891
:1006C8007406031D692B550808005508860001307B
:1006D8008700D50A0108031D5F2B0030080022346B
:1006E80002344734023400340034C7340334E73466
:1006F8000334F0340134FF34033400340034C33499
:1007080002343F340134533459345334203446349A
:100718004134433454344F345234593420345234ED
:100728004534533445345434003453344D3441340F
:100738005234543420344C344934473448345434D3
:10074800203449344E344934543400342000B9013B
:10075800F5017508A03E8600870181010130F4008B
:100768007408F5074030750203180800AD2B823174
:10077800FA2283318331E1238331843105248331A3
:1007880081313F21080020003B080319CD2B01309F
:100798000800003008004C344534563445344C3495
:1007A8000034FE0012001E00FE0BD62B003464003D
:1007B80080010131890BDC2B0034F03021009900D5
:1007C80022009601080075082000EE007408ED006C
:1007D800080075082000E8007408E700080075089C
:1007E8002000EA007408E900080075082000E60007
:1007F8007408E500080075082000EC007408EB0098
:100808000800163021009700080023001D121D164D
:0E0818000800833146230800A03008000800C5
:020000040001F9
:04000E00E4FFFFFF0D
:00000001FF
