:020000040000FA
:040000008031212802
:100008007E1480310B1F1F282100111E1428200088
:10001800111E142862088A0061080A0080311F280E
:100028002100911E1F282000911E1F2860088A00A9
:100038005F080A0080317E10090080312328413092
:1000480084008430850064308600003087000B30DF
:1000580084315A2480312730840084308500E03090
:100068008600003087000E3084315A248031F60132
:10007800F701F801F90120308400003085002830AC
:10008800843160248031A030840000308500403005
:100098008431602480312030840001308500403074
:1000A800843160248031A0308400013085004030E4
:1000B800843160247E1020008031F8282000CE0092
:1000C8004E08F4007408CF004A084B0403190800CE
:1000D8004808F4004F088600870174088100480822
:1000E800F4004A084F07F5007508FF3E86008701AF
:1000F8007408810000304B02033003194A02031CC4
:1001080008004808F4004F0A860087017408810037
:100118004808F4004F08023E8600870174088100F1
:100128004808F4004A084F07F5007508FE3E8600A7
:100138008701740881004808F4004A084F07F50051
:100148007508FD3E860087017408810000304B0267
:10015800073003194A02031C08004808F4004F0836
:10016800033E86008701740881004808F4004A08A5
:100178004F07F5007508FC3E86008701740881006A
:1001880000304B02093003194A02031C08004F09CA
:10019800F4005009F500F40A0319F50A0330740550
:1001A800CC0000307505CD004C08F4007408CF076A
:1001B8004C08CA024D08CB3BFC30CA05FF30CB05C2
:1001C8004A084B04031908004808F4004F08860041
:1001D8008701740881000130CA020030CB3B01302E
:1001E800F4007408CF07E4288431352480318B1754
:1001F8000B1783310E23803184311624803120007F
:100208003908031903290230F4000030F50083315E
:10021800652380318431952480312000D800580826
:10022800B8002030C8000130C9003808CA00FF39BA
:10023800031D0030CB008231A222803154302000CF
:10024800D0008430D10020308131B72180312000A6
:10025800D80058082200E4003C302000C8000030D4
:10026800C900220064082000CA00FF39031D0130BC
:10027800CB008231A222803120004208D8005808E1
:10028800C5004308D8005808C6004408D8005808D4
:10029800C7000030C800C9000930CA000030CB00D0
:1002A8003C3080316220803100302000C800C90015
:1002B8000330CA000030CB004530803162208031E5
:1002C80000292000CC004C08F4007408CF0049082D
:1002D800CE004808CD000130CA020030CB3B4A0AA4
:1002E800031DA1294B0A031DA129C801C901080042
:1002F8004D0884004E08850012000319A8294A08F1
:100308004B040319A8294D0884004E0885000008ED
:10031800F4004F0886000130870001087406031DA9
:10032800A8290130F4007408CF070130CD07003048
:10033800CE3D0130CA020030CB3B4F088600013069
:1003480087000108031D7C294F08860001308700BB
:100358004D0884004E08850000080102C800C90144
:10036800031CC90308002000D700500851040319D2
:10037800FB295108F5005008F40083319923813195
:1003880075082000D6007408D500F1295108C90065
:100398005008C8005608CB005508CA0057088131D4
:1003A80065218131200048084904031DDD295708CB
:1003B800080050088400510885000008D200D301C5
:1003C8005208F4005308F5005708013E8331C92349
:1003D80081312000D4005408D70057080319FB299D
:1003E80057088600013087000108031DCA2900301C
:1003F8000800210091127030F4000230F5008431B9
:1004080084248131210011124830F4000330F500B2
:1004180084316C248131083023009F0090309D0086
:1004280024309E0044309B009C019730F400043037
:10043800F5008431782481318E30F4000430F500E1
:100448008431722481319230F4000430F500843113
:100458007E242000BA01F901F8010830C8004808D4
:10046800E300F701F601BB01210091160800E9300D
:10047800840083308500013F8A00003F0A008231F2
:10048800E530840083308500013F8A00003F0A0080
:100498008231003A031D522A0000442ADF308400CA
:1004A80083308500013F8A00003F0A008231F20054
:1004B8007208F3004030200039020318080073085E
:1004C800F2003908A03E86008701720881000130D9
:1004D800F2007208B90708007708203E86008701F5
:1004E800810123001D1D832A7708203E860087018D
:1004F800811420005E088A005D080A00823123000A
:100508009D1C912A7708203E86008701011520004E
:100518005C088A005B080A0082317708203E860062
:100528008701010803199F2A20005A088A005908E0
:100538000A00823108008331B223080020004B08EA
:10054800D1004A08D0004908D3004808D20053080F
:10055800CD005208CC00D20A0319D30A4C088600F1
:100568004D0887005108CF005008CE00D00A031963
:10057800D10A4E0884004F0885000008C03F89084A
:1005880003190800AB2A20003B080319C72A76087C
:10059800203E860087010108F0007008BA0076083E
:1005A800283E860087010108F0007008F10001303C
:1005B800F0007008F607083076020318F6012100EB
:1005C800911201302000BB02210091167108080029
:1005D800200063080319EC2A2100111AF72A74086D
:1005E80023009A000B2B11127408F5007908303E8D
:1005F80086008701750881000130F5007508F90744
:10060800083079020318F90101302000E3022100C3
:10061800111608003B30F4000230F500EB3084007E
:1006280083308500013F8A00003F0A008331F330A0
:100638002000C8008330C90083312B238331053063
:100648002000C8008430C90083312B230800013002
:100658002000B902390A031908004808840049082B
:1006680085000008CA004A08F400E130840083309D
:100678008500013F8A00003F0A00833101302000D5
:10068800C8070030C93D2B2B08302000630203182F
:10069800622B7808303E86008701010823009A0003
:1006A8000130F0007008F807083078020318F801E4
:1006B8000130F00070082000E30708002100111243
:1006C80008002000C901CA0175084A02031D6E2BE3
:1006D800740849020318080068302000C800E43094
:1006E800890B742BC80B742B000001302000C9073C
:1006F8000030CA3D682B22008C018D018E013F30ED
:1007080021008C0070308D00FF308E00FF302300F8
:100718008E0050308D0037308C0024008D018C0104
:100728002100951722009D01080075082000CA00C5
:100738007408C9007408840075088500120003193C
:10074800AA2B0130F4070030F53D9E2B2000490804
:100758007402F4004A08753BF500080023001908E4
:10076800F0007708283E8600870170088100013074
:10077800F0007008F707083077020318F701013016
:10078800F00070082000BB0708002000C8004808D7
:1007980086000130870001087406031DD52B480820
:1007A80008004808860001308700C80A0108031DB0
:1007B800CB2B00300800C7340234EC340234003448
:1007C80000344C3404346C340434703402348434CB
:1007D80004340034003448340334FD3401345334D1
:1007E80059345334203446344134433454344F3428
:1007F8005234593420345234453453344534543403
:10080800003453344D3441345234543420344C344D
:100818004934473448345434203449344E34493404
:10082800543400342000B901F5017508A03E860053
:10083800870181010130F4007408F5074030750222
:1008480003180800192CFE34023427340734043402
:1008580001342734FE340234273407341034013489
:10086800333483317F238431843166248431843165
:100878008A2484318131FD210800FE340134413459
:100888000034003440344C344534563445344C3408
:1008980020003B080319522C0130080000300800E2
:1008A8004C344534563445344C340034FE00120080
:1008B8001E00FE0B5B2C0034640080010131890BA3
:1008C800612C0034F03021009900220096010800C4
:1008D80075082000E2007408E1000800750820008F
:1008E800DC007408DB00080075082000DE007408CE
:1008F800DD00080075082000DA007408D900080037
:1009080075082000E0007408DF0008001630210098
:100918009700080023001D121D1608008331B2231A
:080928000800A03008000800DF
:020000040001F9
:04000E00E4FFFFFF0D
:00000001FF
