:020000040000FA
:040000008031212802
:100008007E1480310B1F1F282100111E1428200088
:10001800111E142866088A0065080A0080311F2806
:100028002100911E1F282000911E1F2864088A00A5
:1000380063080A0080317E10090080312328F730D8
:1000480084008430850068308600003087000530E1
:100058008431C72480315030840084308500A0303A
:1000680086000030870014308431C7248031F601BF
:10007800F701F801F90120308400003085002830AC
:100088008431CD2480312030840001308500403017
:100098008431CD248031A030840001308500403087
:1000A8008431CD24803120308400023085004030F6
:1000B8008431CD247E1020008031FD282000DB0013
:1000C800D901DA01D201D301D801D80A5B08860028
:1000D800870120300106031982285B088600870102
:1000E8000108F73ECE00FF3003180030CF00003083
:1000F8004F02053003194E020318D8015808CE00E4
:10010800CF014E08D4004F08D500540855040319F0
:1001180097280130CE004E08DB0768280130D2004E
:100128000030D300C6285B08860087010108CE008E
:10013800CF014F08003A0319A228CA284E082B3AC3
:100148000319C628063A03199228CA285B088600AC
:1001580087015A08C9005908C8000A30CA00003087
:10016800CB008331A223803120004908CF00010849
:100178004802CE00031CCF034E08303ED9000030A1
:100188004F3DDA000130CE004E08DB075B088600E1
:1001980087010108D03ECE00FF3003180030CF00A1
:1001A80000304F020A3003194E020318DD280130CF
:1001B800DE280030D000D1015008D6005108D70001
:1001C80056085704031DAA2852085304031DF8288B
:1001D8005909CE005A09CF00CE0A0319CF0A4E0892
:1001E800CC004F08CD0008005A08CD005908CC00B3
:1001F80008008431AD2480318B170B1783314B23D2
:10020800803184318A248031200039080319082973
:100218000230F4000030F5008331BE23803185318F
:10022800072580312000DC005C08B800A030C80039
:100238000130C9003808DC005C08CA0083310F238C
:100248008031C1302000D0008430D100A03081310D
:10025800BB2180312000DC005C082100B6003C3066
:100268002000C8000030C900210036082000DC004A
:100278005C08CA0083310F23803120004208DC006B
:100288005C08C5004308DC005C08C6004408DC00C4
:100298005C08C700453080316220803120004D085D
:1002A8002100B80020004C082100B7006430370650
:1002B8003804031D052909302000C8000030C90092
:1002C8003C308231EE22803105292000CC004C08D8
:1002D800F4007408CF004908CE004808CD0001306A
:1002E800CA020030CB3B4A0A031DA5294B0A031D4D
:1002F800A529C801C90108004D0884004E088500D9
:1003080012000319AC294A084B040319AC294D08FB
:1003180084004E0885000008F4004F08860001306C
:10032800870001087406031DAC290130F400740825
:10033800CF070130CD070030CE3D0130CA02003072
:10034800CB3B4F088600013087000108031D802938
:100358004F088600013087004D0884004E0885004C
:1003680000080102C800C901031CC90308002000D5
:10037800D700500851040319FF295108F500500807
:10038800F4008331F223813175082000D600740807
:10039800D500F5295108C9005008C8005608CB00F7
:1003A8005508CA0057088131692181312000480861
:1003B8004904031DE1295708080050088400510822
:1003C80085000008D200D3015208F4005308F50054
:1003D8005708013E84313A2481312000D400540862
:1003E800D70057080319FF295708860001308700EE
:1003F8000108031DCE290030080021009112753034
:10040800F4000230F5008431F12482312100111208
:100418008530F4000330F5008431D9248231083066
:1004280023009F0090309D0024309E0044309B00A4
:100438009C010930F4000530F5008431E52482314F
:100448000030F4000530F5008431DF2482310430B7
:10045800F4000530F5008431EB242000BA01F901DD
:10046800F8010830C8004808E700F701F601BB01A9
:100478002100911608006E30840084308500013F09
:100488008A00003F0A0082316A3084008430850087
:10049800013F8A00003F0A008231003A031D562AB4
:1004A8000000482A6430840084308500013F8A00B7
:1004B800003F0A008231F2007208F3004030200049
:1004C8003902031808007308F2003908203E860034
:1004D80001308700720881000130F2007208B90704
:1004E80008007708203E86008701810123001D1D32
:1004F800882A7708203E8600870181142000620838
:100508008A0061080A00823123009D1C962A770818
:10051800203E860087010115200060088A005F08D8
:100528000A0082317708203E8600870101080319F6
:10053800A42A20005E088A005D080A0082310800AB
:1005480084312324080020003B080319A72A7608D1
:10055800203E860087010108F0007008BA0076087E
:10056800283E860087010108F0007008F10001307C
:10057800F0007008F607083076020318F60121002B
:10058800911201302000BB02210091167108080069
:10059800200067080319CC2A2100111AD72A7408E9
:1005A80023009A00EB2A11127408F5007908303EEE
:1005B80086008701750881000130F5007508F90784
:1005C800083079020318F90101302000E702210000
:1005D800111608002000CB00FF30C807FF30C93DC6
:1005E800480A0319490A031908004B0886008701BD
:1005F8000108CA004A08F400663084008430850087
:10060800013F8A00003F0A00833101302000CA0000
:100618004A08CB07F02A20004A08F4007408CD00E5
:100628004908CC004808CB004C08F5004B08F400FA
:10063800CB0A0319CC0A74088600750887004D0890
:10064800840001308500CD0A0008C03F89080319DD
:100658000800182B2000CA01CA0A20307406750445
:100668000319432B7408F73EC800FF30753DC900D5
:10067800003049020530031948020318CA014A0824
:10068800C800C9014808F4004908F50008003F30CF
:10069800F4000230F5007030840084308500013F9A
:1006A8008A00003F0A00833178302000C800843077
:1006B800C9008331682383319C302000C80084300E
:1006C800C90083316823080001302000B902390AC3
:1006D8000319080048088400490885000008CA0072
:1006E8004A08F4006630840084308500013F8A009F
:1006F800003F0A00833101302000C8070030C93D9F
:10070800682B08302000670203189F2B7808303EBA
:1007180086008701010823009A000130F000700864
:10072800F807083078020318F8010130F000700863
:100738002000E7070800210011120800F401F50164
:100748002000481CAB2B4A08F4074B08F53D013044
:10075800CA35CB0D890BAC2B0130C936C80C890BB7
:10076800B12B48084904031DA42B7508C900740857
:10077800C80008002000C901CA0175084A02031D03
:10078800C72B740849020318080068302000C80005
:10079800E430890BCD2BC80BCD2B00000130200095
:1007A800C9070030CA3DC12B22008C018D018E0182
:1007B8003F3021008C0070308D00FF308E00FF30FC
:1007C80023008E0050308D0037308C0024008D01BE
:1007D8008C012100951722009D0108007508200052
:1007E800CA007408C90074088400750885001200DE
:1007F8000319032C0130F4070030F53DF72B2000D6
:1008080049087402F4004A08753BF50008007408AA
:10081800D03E2000C800FF30753DC90000304902B5
:100828000A300319480203181B2C01301C2C003015
:10083800CA00CB014A08F4004B08F5000800230061
:100848001908F0007708283E8600870170088100A3
:100858000130F0007008F707083077020318F70135
:100868000130F00070082000BB0708002000C80015
:10087800480886000130870001087406031D462CCD
:10088800480808004808860001308700C80A01089F
:10089800031D3C2C00300800FE3402342734073492
:1008A800043401342734FE34023427340734103436
:1008B80001343334FE3401344134003400344034DC
:1008C800A7340234CC34023400340034B93404344C
:1008D800D934043475340234F13404340034003427
:1008E80085340334013402345334593453342034B6
:1008F80046344134433454344F3452345934203418
:100908005234453453344534543400342000B9014A
:10091800F5017508203E860001308700810101300D
:10092800F4007408F50740307502031808008D2C90
:1009380053344D3441345234543420344C344934D3
:10094800473448345434203449344E3449345434C8
:1009580000348331D82384318431D32484318431E1
:10096800FC24843182310122080020003B0803194D
:10097800BF2C01300800003008004C344534563490
:1009880045344C340034FE0012001E00FE0BC82C07
:100998000034640080010131890BCE2C0034F03022
:1009A8002100990022009601080075082000E60041
:1009B8007408E500080075082000E0007408DF00EE
:1009C800080075082000E2007408E10008007508B6
:1009D8002000DE007408DD00080075082000E4002F
:1009E8007408E30008004C344534563445344C341C
:1009F800163021009700080023001D121D1608005C
:0C0A08008431232408002030080008007E
:020000040001F9
:04000E00E4FFFFFF0D
:00000001FF
