:020000040000FA
:040000008031212802
:100008007E1480310B1F1F282100111E1428200088
:10001800111E142851088A0050080A0080311F2830
:100028002100911E1F282000911E1F284F088A00BA
:100038004E080A0080317E10090080312328F030F4
:100048008400203085000030FE000130FF0082313E
:100058004E228031F001F101F201F301F401203068
:100068008400003085001C30FE000030FF00823123
:100078004E227E1020008031842821009112BA304F
:100088002000BC000030BD00823184228031210074
:100098001112B2302000BC000130BD0082316C2248
:1000A8008031083023009F0090309D0024309E004E
:1000B80044309B009C019B302000BC000230BD00F6
:1000C80082317822803194302000BC000230BD009B
:1000D80082317222803198302000BC000230BD008D
:1000E80082317E222000BB01F401F3010830BE00FA
:1000F8003E08D200F201F101F0012100911608003A
:1001080082315A2280318B170B1782313F2280317E
:1001180082318A22803120003D08B9003C08B800AD
:100128003808860039088700010803198C2801302F
:10013800BC000030BD008131E9218031F030200061
:10014800BC002030BD003908BF003808BE0081312E
:1001580047218031F0302000BE002030BF008131BF
:100168001A21803182312C2280318C287208203E5D
:1001780086008701810123001D1DCD287208203EBD
:1001880086008701811420004D088A004C080A0067
:10019800803123009D1CDB287208203E86008701E1
:1001A800011520004B088A004A080A0080317208AD
:1001B800203E8600870101080319E9282000490824
:1001C8008A0048080A0080310800823102220800AB
:1001D8002230840082308500013F8A00003F0A00F7
:1001E80080311830840082308500013F8A00003F4A
:1001F8000A008031F7007708F90079080319080028
:10020800803020003A02031808003A08703EF700D0
:10021800F8012130F83D77088600780887007908CA
:1002280081000130F7007708BA07080020003E086F
:1002380086003F0887000108031939293E0886000F
:100248003F0887000108C0004008BC001A3084003D
:1002580082308500013F8A00003F0A008131013069
:100268002000BE070030BF3D1A290A30C0004008F0
:10027800BC001A30840082308500013F8A00003FAC
:100288000A008131080020003F08C5003E08C4006C
:100298003D08C7003C08C6004708C1004608C00022
:1002A800C60A0319C70A400886004108870045089E
:1002B800C3004408C200C40A0319C50A42088400DE
:1002C800430885000008C03F890803190800502921
:1002D8002000520803196C292100111A78292000DE
:1002E8003C0823009A008C29111220003C08BD000C
:1002F8007408303E860087013D0881000130BD004A
:100308003D08F407083074020318F4010130D202E2
:10031800210011160800700803198F297108203E62
:10032800860087010108F50075082000BB007108E8
:10033800283E860087010108F5007508F60001309F
:10034800F5007508F107083071020318F101210062
:1003580091120130F002911676080800083020004A
:1003680052020318CC297308303E86008701010821
:1003780023009A000130F5007508F307083073026E
:100388000318F3010130F50075082000D2070800B2
:1003980021001112080022008C018D018E013F30CE
:1003A80021008C0070308D00FF308E00FF3023005C
:1003B8008E0050308D0037308C0024008D018C0168
:1003C8002100951722009D0108002000BF01C001EF
:1003D8003D084002031DF2293C083F0203180800AB
:1003E8009C302000BE00D730890BF829BE0BF829B5
:1003F80001302000BF070030C03DEC292300190858
:10040800F5007208283E86008701750881000130D2
:10041800F5007508F207083072020318F20101307E
:10042800F5007508F00708008F3401346C34013486
:1004380000340034003400346C340234BA340034EC
:100448008434023400340034B2340134413400348A
:100458002000BA01BD013D08703E860087012130A9
:10046800873D81010130BC003C08BD0780303D025A
:10047800031808002F2AEC302000BC000030BD0013
:100488002430840082308500013F8A00003F0A0042
:10049800823108006400800101310130FE02003021
:1004A800FF3B7F087E04031900344F2A8131CF2196
:1004B80082318231662282318231902282318031CA
:1004C80041200800F0302100990022009601080020
:1004D80020003D08D1003C08D000080020003D085D
:1004E800CB003C08CA00080020003D08CD003C08AD
:1004F800CC00080020003D08C9003C08C8000800DE
:1005080020003D08CF003C08CE0008002130200024
:10051800BD007030BC0008001630210097000800AC
:1005280023001D121D16080082310222080008004F
:020000040001F9
:04000E00E4FFFFFF0D
:00000001FF
