:020000040000FA
:040000008031212802
:100008007E1480310B1F1F282100111E1428200088
:10001800111E142866088A0065080A0080311F2806
:100028002100911E1F282000911E1F2864088A00A5
:1000380063080A0080317E10090080312328F60108
:10004800F701F801F90120308400003085003D30C7
:10005800823164228031A030840000308500203055
:10006800823164227E1020008131182921009112EA
:10007800E630F4000030F50082318822803121001A
:100088001112A230F4000130F50082317022803163
:10009800083023009F0090309D0024309E0044309B
:1000A8009B009C019B30F4000230F50082317C22D9
:1000B80080319230F4000230F500823176228031AE
:1000C8009630F4000230F500823182222000BA0115
:1000D800F901BC010830E8006808E700F801F701F9
:1000E800BB012100911608000130F602760A0319B7
:1000F8009528200068088400690885000008EA003F
:100108006A08F4000B30840082308500013F8A00C1
:10011800003F0A00803101302000E8070030E93D47
:1001280078280D302000EA006A08F4000B308400BB
:1001380082308500013F8A00003F0A0080310A3082
:100148002000EA006A08F4000B3084008230850041
:10015800013F8A00003F0A00803108001330840004
:1001680082308500013F8A00003F0A0080310F304D
:10017800840082308500013F8A00003F0A008031F8
:10018800003A031DC9280000BB28093084008230CA
:100198008500013F8A00003F0A008031F2007208A2
:1001A800F30020307602031808007308F20076087E
:1001B8003D3E86008701720881000130F200720816
:1001C800F60708007808203E860087018101230091
:1001D8001D1DF9287808203E86008701811420001B
:1001E80062088A0061080A00803123009D1C0729E3
:1001F8007808203E860087010115200060088A00E3
:100208005F080A0081317808203E860087010108CE
:100218000319152920005E088A005D080A0081314B
:1002280008008131F22108008231502281318B1778
:100238000B17813185218131760803192029023075
:10024800F4000030F5008131D921813182319922C1
:1002580081312000ED006D08B9003908E800FF3948
:10026800031D0030E900803178208131823140223D
:100278008131202920003B0803193E297708203EB8
:10028800860087010108F0007008BA007708283E48
:10029800860087010108F0007008F1000130F000C5
:1002A8007008F707083077020318F7012100911248
:1002B80001302000BB0221009116710808002000BF
:1002C8006708031963292100111A6E29740823008D
:1002D8009A00822911127408F5007908303E8600C8
:1002E8008701750881000130F5007508F9070830A5
:1002F80079020318F90101302000E70221001116E4
:100308000800B230F4000030F50015308400823067
:100318008500013F8A00003F0A0081311D3020001E
:10032800E8008230E9008031782081312F302000C8
:10033800E8008230E9008031782008000830200089
:1003480067020318BC293C08303E86008701010873
:1003580023009A000130F00070082000BC07083024
:100368003C020318BC010130F0007008E7070800E0
:1003780021001112080022008C018D018E013F30EE
:1003880021008C0070308D00FF308E00FF3023007C
:100398008E0050308D0037308C0024008D018C0188
:1003A8002100951722009D0108002000E901EA01BB
:1003B80075086A02031DE229740869020318080017
:1003C8009C302000E800D730890BE829E80BE829A1
:1003D80001302000E9070030EA3DDC292300190834
:1003E800F0007808283E86008701700881000130F7
:1003F800F0007008F807083078020318F801013097
:10040800F00070082000BB0708003E340134633454
:100418000134003400345C34023470340234E6347D
:1004280000348834023400340034A23401343A34BD
:10043800003453345934533420344634413443342B
:1004480054344F34523459342034523445345334AC
:1004580045345434003453344D34413452345434D4
:1004680020344C34493447344834543420344934E3
:100478004E34493454340034F601F50175083D3ED4
:100488008600870181010130F4007408F5072030E7
:10049800750203180800422A8131BF218231823156
:1004A8006A22823182318E22823180313A200800DC
:1004B80020003B080319622A0130080000300800B8
:1004C800640080010131890B652A0034F030210075
:1004D800990022009601080075082000E6007408BB
:1004E800E500080075082000E0007408DF00080037
:1004F80075082000E2007408E10008007508200073
:10050800DE007408DD00080075082000E4007408A7
:10051800E3000800163021009700080023001D1290
:100528001D1608008131F22108003D30080008003E
:020000040001F9
:04000E00E4FFFFFF0D
:00000001FF
